{
  "contractName": "Kyc",
  "abi": [
    {
      "inputs": [],
      "stateMutability": "nonpayable",
      "type": "constructor"
    },
    {
      "anonymous": false,
      "inputs": [
        {
          "indexed": false,
          "internalType": "uint256",
          "name": "reqid",
          "type": "uint256"
        },
        {
          "indexed": false,
          "internalType": "address",
          "name": "custAddress",
          "type": "address"
        },
        {
          "indexed": false,
          "internalType": "address",
          "name": "ethAddress",
          "type": "address"
        },
        {
          "indexed": false,
          "internalType": "bool",
          "name": "isAllowed",
          "type": "bool"
        }
      ],
      "name": "accessGiven",
      "type": "event"
    },
    {
      "anonymous": false,
      "inputs": [
        {
          "indexed": false,
          "internalType": "address",
          "name": "custAddress",
          "type": "address"
        },
        {
          "indexed": false,
          "internalType": "address",
          "name": "ethAddress",
          "type": "address"
        }
      ],
      "name": "accessRevoked",
      "type": "event"
    },
    {
      "anonymous": false,
      "inputs": [
        {
          "indexed": false,
          "internalType": "address",
          "name": "custAddress",
          "type": "address"
        },
        {
          "indexed": false,
          "internalType": "bool",
          "name": "kycStatus",
          "type": "bool"
        }
      ],
      "name": "customerAdded",
      "type": "event"
    },
    {
      "anonymous": false,
      "inputs": [
        {
          "indexed": false,
          "internalType": "address",
          "name": "custAddress",
          "type": "address"
        },
        {
          "indexed": false,
          "internalType": "bool",
          "name": "kycStatus",
          "type": "bool"
        }
      ],
      "name": "customerUpdated",
      "type": "event"
    },
    {
      "anonymous": false,
      "inputs": [
        {
          "indexed": false,
          "internalType": "address",
          "name": "custAddress",
          "type": "address"
        },
        {
          "indexed": false,
          "internalType": "address",
          "name": "ethAddress",
          "type": "address"
        }
      ],
      "name": "kycRemoved",
      "type": "event"
    },
    {
      "anonymous": false,
      "inputs": [
        {
          "indexed": false,
          "internalType": "string",
          "name": "name",
          "type": "string"
        },
        {
          "indexed": false,
          "internalType": "address",
          "name": "ethAddress",
          "type": "address"
        }
      ],
      "name": "orgAdded",
      "type": "event"
    },
    {
      "anonymous": false,
      "inputs": [
        {
          "indexed": false,
          "internalType": "address",
          "name": "ethAddress",
          "type": "address"
        }
      ],
      "name": "orgRemoved",
      "type": "event"
    },
    {
      "anonymous": false,
      "inputs": [
        {
          "indexed": false,
          "internalType": "uint256",
          "name": "reqid",
          "type": "uint256"
        },
        {
          "indexed": false,
          "internalType": "address",
          "name": "ethAddress",
          "type": "address"
        },
        {
          "indexed": false,
          "internalType": "address",
          "name": "custAddress",
          "type": "address"
        },
        {
          "indexed": false,
          "internalType": "bool",
          "name": "isAllowed",
          "type": "bool"
        }
      ],
      "name": "requestAdded",
      "type": "event"
    },
    {
      "anonymous": false,
      "inputs": [
        {
          "indexed": false,
          "internalType": "uint256",
          "name": "reqid",
          "type": "uint256"
        },
        {
          "indexed": false,
          "internalType": "address",
          "name": "ethAddress",
          "type": "address"
        }
      ],
      "name": "requestRemoved",
      "type": "event"
    },
    {
      "inputs": [],
      "name": "admin",
      "outputs": [
        {
          "internalType": "address",
          "name": "",
          "type": "address"
        }
      ],
      "stateMutability": "view",
      "type": "function",
      "constant": true
    },
    {
      "inputs": [
        {
          "internalType": "string",
          "name": "_name",
          "type": "string"
        },
        {
          "internalType": "address",
          "name": "_ethAddress",
          "type": "address"
        }
      ],
      "name": "addOrg",
      "outputs": [
        {
          "internalType": "bool",
          "name": "",
          "type": "bool"
        }
      ],
      "stateMutability": "nonpayable",
      "type": "function"
    },
    {
      "inputs": [
        {
          "internalType": "address",
          "name": "_ethAddress",
          "type": "address"
        }
      ],
      "name": "removeOrg",
      "outputs": [
        {
          "internalType": "bool",
          "name": "",
          "type": "bool"
        }
      ],
      "stateMutability": "nonpayable",
      "type": "function"
    },
    {
      "inputs": [
        {
          "internalType": "address",
          "name": "_ethAddress",
          "type": "address"
        }
      ],
      "name": "viewOrg",
      "outputs": [
        {
          "components": [
            {
              "internalType": "string",
              "name": "name",
              "type": "string"
            },
            {
              "internalType": "address",
              "name": "ethAddress",
              "type": "address"
            }
          ],
          "internalType": "struct Kyc.Organization",
          "name": "",
          "type": "tuple"
        }
      ],
      "stateMutability": "view",
      "type": "function",
      "constant": true
    },
    {
      "inputs": [],
      "name": "getYourOrgDetail",
      "outputs": [
        {
          "components": [
            {
              "internalType": "string",
              "name": "name",
              "type": "string"
            },
            {
              "internalType": "address",
              "name": "ethAddress",
              "type": "address"
            }
          ],
          "internalType": "struct Kyc.Organization",
          "name": "",
          "type": "tuple"
        }
      ],
      "stateMutability": "view",
      "type": "function",
      "constant": true
    },
    {
      "inputs": [],
      "name": "validOrg",
      "outputs": [
        {
          "internalType": "bool",
          "name": "",
          "type": "bool"
        }
      ],
      "stateMutability": "view",
      "type": "function",
      "constant": true
    },
    {
      "inputs": [],
      "name": "validAdmin",
      "outputs": [
        {
          "internalType": "bool",
          "name": "",
          "type": "bool"
        }
      ],
      "stateMutability": "view",
      "type": "function",
      "constant": true
    },
    {
      "inputs": [],
      "name": "validCust",
      "outputs": [
        {
          "internalType": "bool",
          "name": "",
          "type": "bool"
        }
      ],
      "stateMutability": "view",
      "type": "function",
      "constant": true
    },
    {
      "inputs": [
        {
          "internalType": "address",
          "name": "_custaddress",
          "type": "address"
        },
        {
          "internalType": "string",
          "name": "_jsonHash",
          "type": "string"
        },
        {
          "internalType": "string",
          "name": "_photohash",
          "type": "string"
        },
        {
          "internalType": "string",
          "name": "_citizenship_front_hash",
          "type": "string"
        },
        {
          "internalType": "string",
          "name": "_citizenship_back_hash",
          "type": "string"
        },
        {
          "internalType": "bool",
          "name": "_kycStatus",
          "type": "bool"
        },
        {
          "internalType": "uint256",
          "name": "_d",
          "type": "uint256"
        },
        {
          "internalType": "uint256",
          "name": "_n",
          "type": "uint256"
        }
      ],
      "name": "registerKYC",
      "outputs": [
        {
          "internalType": "bool",
          "name": "",
          "type": "bool"
        }
      ],
      "stateMutability": "nonpayable",
      "type": "function"
    },
    {
      "inputs": [
        {
          "internalType": "address",
          "name": "_custaddress",
          "type": "address"
        }
      ],
      "name": "viewKYC",
      "outputs": [
        {
          "internalType": "bool",
          "name": "",
          "type": "bool"
        },
        {
          "internalType": "string",
          "name": "",
          "type": "string"
        },
        {
          "internalType": "string",
          "name": "",
          "type": "string"
        },
        {
          "internalType": "string",
          "name": "",
          "type": "string"
        },
        {
          "internalType": "string",
          "name": "",
          "type": "string"
        },
        {
          "internalType": "uint256",
          "name": "",
          "type": "uint256"
        },
        {
          "internalType": "uint256",
          "name": "",
          "type": "uint256"
        }
      ],
      "stateMutability": "view",
      "type": "function",
      "constant": true
    },
    {
      "inputs": [],
      "name": "viewYourKYC",
      "outputs": [
        {
          "components": [
            {
              "internalType": "address",
              "name": "custAddress",
              "type": "address"
            },
            {
              "internalType": "string",
              "name": "jsonHash",
              "type": "string"
            },
            {
              "internalType": "string",
              "name": "photoHash",
              "type": "string"
            },
            {
              "internalType": "string",
              "name": "citizenship_front_hash",
              "type": "string"
            },
            {
              "internalType": "string",
              "name": "citizenship_back_hash",
              "type": "string"
            },
            {
              "internalType": "uint256",
              "name": "d",
              "type": "uint256"
            },
            {
              "internalType": "uint256",
              "name": "n",
              "type": "uint256"
            },
            {
              "internalType": "address[]",
              "name": "organization",
              "type": "address[]"
            },
            {
              "internalType": "bool",
              "name": "kycStatus",
              "type": "bool"
            }
          ],
          "internalType": "struct Kyc.Customer",
          "name": "",
          "type": "tuple"
        }
      ],
      "stateMutability": "view",
      "type": "function",
      "constant": true
    },
    {
      "inputs": [],
      "name": "viewOrgWithAccess",
      "outputs": [
        {
          "internalType": "address[]",
          "name": "",
          "type": "address[]"
        }
      ],
      "stateMutability": "view",
      "type": "function",
      "constant": true
    },
    {
      "inputs": [],
      "name": "viewRequestCust",
      "outputs": [
        {
          "components": [
            {
              "internalType": "uint256",
              "name": "req_count",
              "type": "uint256"
            },
            {
              "internalType": "address",
              "name": "Address",
              "type": "address"
            }
          ],
          "internalType": "struct Kyc.kycRequestList[]",
          "name": "",
          "type": "tuple[]"
        }
      ],
      "stateMutability": "view",
      "type": "function",
      "constant": true
    },
    {
      "inputs": [
        {
          "internalType": "address",
          "name": "_custaddress",
          "type": "address"
        },
        {
          "internalType": "string",
          "name": "_jsonHash",
          "type": "string"
        },
        {
          "internalType": "string",
          "name": "_photohash",
          "type": "string"
        },
        {
          "internalType": "string",
          "name": "_citizenship_front_hash",
          "type": "string"
        },
        {
          "internalType": "string",
          "name": "_citizenship_back_hash",
          "type": "string"
        },
        {
          "internalType": "bool",
          "name": "_kycStatus",
          "type": "bool"
        },
        {
          "internalType": "uint256",
          "name": "_d",
          "type": "uint256"
        },
        {
          "internalType": "uint256",
          "name": "_n",
          "type": "uint256"
        }
      ],
      "name": "updateKYC",
      "outputs": [
        {
          "internalType": "bool",
          "name": "",
          "type": "bool"
        }
      ],
      "stateMutability": "nonpayable",
      "type": "function"
    },
    {
      "inputs": [
        {
          "internalType": "address",
          "name": "_custaddress",
          "type": "address"
        }
      ],
      "name": "requestKYC",
      "outputs": [
        {
          "internalType": "bool",
          "name": "",
          "type": "bool"
        }
      ],
      "stateMutability": "nonpayable",
      "type": "function"
    },
    {
      "inputs": [
        {
          "internalType": "uint256",
          "name": "_reqcount",
          "type": "uint256"
        }
      ],
      "name": "deleteRequestOrg",
      "outputs": [
        {
          "internalType": "bool",
          "name": "",
          "type": "bool"
        }
      ],
      "stateMutability": "nonpayable",
      "type": "function"
    },
    {
      "inputs": [
        {
          "internalType": "uint256",
          "name": "_reqcount",
          "type": "uint256"
        },
        {
          "internalType": "address",
          "name": "_ethAddress",
          "type": "address"
        }
      ],
      "name": "deleteRequestCust",
      "outputs": [],
      "stateMutability": "nonpayable",
      "type": "function"
    },
    {
      "inputs": [],
      "name": "listRequest",
      "outputs": [
        {
          "components": [
            {
              "internalType": "uint256",
              "name": "req_count",
              "type": "uint256"
            },
            {
              "internalType": "address",
              "name": "Address",
              "type": "address"
            }
          ],
          "internalType": "struct Kyc.kycRequestList[]",
          "name": "",
          "type": "tuple[]"
        }
      ],
      "stateMutability": "view",
      "type": "function",
      "constant": true
    },
    {
      "inputs": [
        {
          "internalType": "uint256",
          "name": "_reqcount",
          "type": "uint256"
        },
        {
          "internalType": "address",
          "name": "_ethAddress",
          "type": "address"
        },
        {
          "internalType": "bool",
          "name": "_isAllowed",
          "type": "bool"
        }
      ],
      "name": "giveAccessKYC",
      "outputs": [
        {
          "internalType": "bool",
          "name": "",
          "type": "bool"
        }
      ],
      "stateMutability": "nonpayable",
      "type": "function"
    },
    {
      "inputs": [
        {
          "internalType": "address",
          "name": "_ethAddress",
          "type": "address"
        }
      ],
      "name": "revokeAccessKYC",
      "outputs": [
        {
          "internalType": "bool",
          "name": "",
          "type": "bool"
        }
      ],
      "stateMutability": "nonpayable",
      "type": "function"
    },
    {
      "inputs": [
        {
          "internalType": "address",
          "name": "_custaddress",
          "type": "address"
        }
      ],
      "name": "removeKYC",
      "outputs": [
        {
          "internalType": "bool",
          "name": "",
          "type": "bool"
        }
      ],
      "stateMutability": "nonpayable",
      "type": "function"
    }
  ],
  "bytecode": "0x608060405234801561001057600080fd5b50336000806101000a81548173ffffffffffffffffffffffffffffffffffffffff021916908373ffffffffffffffffffffffffffffffffffffffff160217905550615b4780620000616000396000f3fe608060405234801561001057600080fd5b50600436106101375760003560e01c8063a1ac9e57116100b8578063ceacabd51161007c578063ceacabd5146103b0578063d6bbbf84146103ce578063d9b18f04146103ec578063e1b2dbe814610422578063f3a9b58814610440578063f851a4401461045e57610137565b8063a1ac9e57146102d2578063a64266e714610302578063b7e4a42d14610332578063c10cebe614610362578063ca1cbcc21461039257610137565b80634f4b4f78116100ff5780634f4b4f781461020857806354291824146102265780637042d70c1461025657806384f702ee1461027257806388c4ce54146102a257610137565b806306e5d4d11461013c578063243f6b581461016c5780632a539a221461019c57806332722a25146101cc5780633b2b8abf146101ea575b600080fd5b6101566004803603810190610151919061433a565b61047c565b6040516101639190614382565b60405180910390f35b6101866004803603810190610181919061433a565b6105e3565b6040516101939190614382565b60405180910390f35b6101b660048036038101906101b191906143ff565b610752565b6040516101c39190614382565b60405180910390f35b6101d4610ae5565b6040516101e1919061452e565b60405180910390f35b6101f2610c2c565b6040516101ff91906145ff565b60405180910390f35b610210610dca565b60405161021d9190614382565b60405180910390f35b610240600480360381019061023b9190614621565b610e72565b60405161024d9190614382565b60405180910390f35b610270600480360381019061026b919061464e565b611092565b005b61028c600480360381019061028791906147c3565b61130b565b6040516102999190614382565b60405180910390f35b6102bc60048036038101906102b7919061433a565b611487565b6040516102c9919061452e565b60405180910390f35b6102ec60048036038101906102e791906148e9565b6116a0565b6040516102f99190614382565b60405180910390f35b61031c600480360381019061031791906147c3565b611950565b6040516103299190614382565b60405180910390f35b61034c6004803603810190610347919061433a565b611a8d565b6040516103599190614382565b60405180910390f35b61037c6004803603810190610377919061433a565b611c20565b6040516103899190614382565b60405180910390f35b61039a6120dc565b6040516103a79190614a32565b60405180910390f35b6103b8612328565b6040516103c59190614bb3565b60405180910390f35b6103d6612722565b6040516103e39190614382565b60405180910390f35b6104066004803603810190610401919061433a565b612788565b6040516104199796959493929190614c2e565b60405180910390f35b61042a612c03565b6040516104379190614382565b60405180910390f35b610448612cab565b6040516104559190614a32565b60405180910390f35b610466612eb2565b6040516104739190614cc8565b60405180910390f35b60003373ffffffffffffffffffffffffffffffffffffffff16600160003373ffffffffffffffffffffffffffffffffffffffff1673ffffffffffffffffffffffffffffffffffffffff16815260200190815260200160002060000160009054906101000a900473ffffffffffffffffffffffffffffffffffffffff1673ffffffffffffffffffffffffffffffffffffffff161461054e576040517f08c379a000000000000000000000000000000000000000000000000000000000815260040161054590614d55565b60405180910390fd5b6105583383612ed6565b610597576040517f08c379a000000000000000000000000000000000000000000000000000000000815260040161058e90614de7565b60405180910390fd5b6105a13383613005565b7fe88c41c4d37804e10d7ea8c3879578b372d9fabc7fd55f30843786e63b024bc933836040516105d2929190614e07565b60405180910390a160019050919050565b60006105ed61320a565b8173ffffffffffffffffffffffffffffffffffffffff16600160008473ffffffffffffffffffffffffffffffffffffffff1673ffffffffffffffffffffffffffffffffffffffff16815260200190815260200160002060000160009054906101000a900473ffffffffffffffffffffffffffffffffffffffff1673ffffffffffffffffffffffffffffffffffffffff16146106bd576040517f08c379a00000000000000000000000000000000000000000000000000000000081526004016106b490614e7c565b60405180910390fd5b6106c78233612ed6565b610706576040517f08c379a00000000000000000000000000000000000000000000000000000000081526004016106fd90614de7565b60405180910390fd5b6107108233613005565b7fd2bb631b9ffa2bf92c1b926be30d35e0753e89189734d361478d148ce3609ecd8233604051610741929190614e07565b60405180910390a160019050919050565b60003373ffffffffffffffffffffffffffffffffffffffff16600160003373ffffffffffffffffffffffffffffffffffffffff1673ffffffffffffffffffffffffffffffffffffffff16815260200190815260200160002060000160009054906101000a900473ffffffffffffffffffffffffffffffffffffffff1673ffffffffffffffffffffffffffffffffffffffff1614610824576040517f08c379a000000000000000000000000000000000000000000000000000000000815260040161081b90614f0e565b60405180910390fd5b3373ffffffffffffffffffffffffffffffffffffffff16600360008573ffffffffffffffffffffffffffffffffffffffff1673ffffffffffffffffffffffffffffffffffffffff168152602001908152602001600020600201858154811061088f5761088e614f2e565b5b906000526020600020906002020160010160009054906101000a900473ffffffffffffffffffffffffffffffffffffffff1673ffffffffffffffffffffffffffffffffffffffff1614610917576040517f08c379a000000000000000000000000000000000000000000000000000000000815260040161090e90614fa9565b60405180910390fd5b83600360008573ffffffffffffffffffffffffffffffffffffffff1673ffffffffffffffffffffffffffffffffffffffff168152602001908152602001600020600201858154811061096c5761096b614f2e565b5b906000526020600020906002020160000154146109be576040517f08c379a00000000000000000000000000000000000000000000000000000000081526004016109b590615015565b60405180910390fd5b6001151582151503610acf57600015156109d83385612ed6565b151503610a8357600160003373ffffffffffffffffffffffffffffffffffffffff1673ffffffffffffffffffffffffffffffffffffffff168152602001908152602001600020600701839080600181540180825580915050600190039060005260206000200160009091909190916101000a81548173ffffffffffffffffffffffffffffffffffffffff021916908373ffffffffffffffffffffffffffffffffffffffff1602179055505b610a8d8484611092565b7fadbe7f03a7f299dc85504c5aa657355c0e4e2f199bae0b27c64e9cc810e699a984338585604051610ac29493929190615035565b60405180910390a1610ada565b610ad98484611092565b5b600190509392505050565b610aed6141a7565b610af561320a565b600260003373ffffffffffffffffffffffffffffffffffffffff1673ffffffffffffffffffffffffffffffffffffffff168152602001908152602001600020604051806040016040529081600082018054610b4f906150a9565b80601f0160208091040260200160405190810160405280929190818152602001828054610b7b906150a9565b8015610bc85780601f10610b9d57610100808354040283529160200191610bc8565b820191906000526020600020905b815481529060010190602001808311610bab57829003601f168201915b505050505081526020016001820160009054906101000a900473ffffffffffffffffffffffffffffffffffffffff1673ffffffffffffffffffffffffffffffffffffffff1673ffffffffffffffffffffffffffffffffffffffff1681525050905090565b60603373ffffffffffffffffffffffffffffffffffffffff16600160003373ffffffffffffffffffffffffffffffffffffffff1673ffffffffffffffffffffffffffffffffffffffff16815260200190815260200160002060000160009054906101000a900473ffffffffffffffffffffffffffffffffffffffff1673ffffffffffffffffffffffffffffffffffffffff1614610cfe576040517f08c379a0000000000000000000000000000000000000000000000000000000008152600401610cf590615126565b60405180910390fd5b600160003373ffffffffffffffffffffffffffffffffffffffff1673ffffffffffffffffffffffffffffffffffffffff168152602001908152602001600020600701805480602002602001604051908101604052809291908181526020018280548015610dc057602002820191906000526020600020905b8160009054906101000a900473ffffffffffffffffffffffffffffffffffffffff1673ffffffffffffffffffffffffffffffffffffffff1681526020019060010190808311610d76575b5050505050905090565b60003373ffffffffffffffffffffffffffffffffffffffff16600260003373ffffffffffffffffffffffffffffffffffffffff1673ffffffffffffffffffffffffffffffffffffffff16815260200190815260200160002060010160009054906101000a900473ffffffffffffffffffffffffffffffffffffffff1673ffffffffffffffffffffffffffffffffffffffff1603610e6a5760019050610e6f565b600090505b90565b6000610e7c61320a565b3373ffffffffffffffffffffffffffffffffffffffff16600360003373ffffffffffffffffffffffffffffffffffffffff1673ffffffffffffffffffffffffffffffffffffffff16815260200190815260200160002060000160009054906101000a900473ffffffffffffffffffffffffffffffffffffffff1673ffffffffffffffffffffffffffffffffffffffff1614610f4c576040517f08c379a0000000000000000000000000000000000000000000000000000000008152600401610f43906151b8565b60405180910390fd5b81600360003373ffffffffffffffffffffffffffffffffffffffff1673ffffffffffffffffffffffffffffffffffffffff1681526020019081526020016000206002018381548110610fa157610fa0614f2e565b5b90600052602060002090600202016000015414610ff3576040517f08c379a0000000000000000000000000000000000000000000000000000000008152600401610fea90615224565b60405180910390fd5b6000600360003373ffffffffffffffffffffffffffffffffffffffff1673ffffffffffffffffffffffffffffffffffffffff168152602001908152602001600020600201838154811061104957611048614f2e565b5b906000526020600020906002020160010160009054906101000a900473ffffffffffffffffffffffffffffffffffffffff1690506110888382336132dc565b6001915050919050565b8073ffffffffffffffffffffffffffffffffffffffff16600260008373ffffffffffffffffffffffffffffffffffffffff1673ffffffffffffffffffffffffffffffffffffffff16815260200190815260200160002060010160009054906101000a900473ffffffffffffffffffffffffffffffffffffffff1673ffffffffffffffffffffffffffffffffffffffff1614611162576040517f08c379a0000000000000000000000000000000000000000000000000000000008152600401611159906152b6565b60405180910390fd5b3373ffffffffffffffffffffffffffffffffffffffff16600360008373ffffffffffffffffffffffffffffffffffffffff1673ffffffffffffffffffffffffffffffffffffffff16815260200190815260200160002060020183815481106111cd576111cc614f2e565b5b906000526020600020906002020160010160009054906101000a900473ffffffffffffffffffffffffffffffffffffffff1673ffffffffffffffffffffffffffffffffffffffff1614611255576040517f08c379a000000000000000000000000000000000000000000000000000000000815260040161124c90614fa9565b60405180910390fd5b81600360008373ffffffffffffffffffffffffffffffffffffffff1673ffffffffffffffffffffffffffffffffffffffff16815260200190815260200160002060020183815481106112aa576112a9614f2e565b5b906000526020600020906002020160000154146112fc576040517f08c379a00000000000000000000000000000000000000000000000000000000081526004016112f390615224565b60405180910390fd5b6113078233836132dc565b5050565b600061131561320a565b8873ffffffffffffffffffffffffffffffffffffffff16600160008b73ffffffffffffffffffffffffffffffffffffffff1673ffffffffffffffffffffffffffffffffffffffff16815260200190815260200160002060000160009054906101000a900473ffffffffffffffffffffffffffffffffffffffff1673ffffffffffffffffffffffffffffffffffffffff16146113e5576040517f08c379a00000000000000000000000000000000000000000000000000000000081526004016113dc90614e7c565b60405180910390fd5b6113ef8933612ed6565b61142e576040517f08c379a000000000000000000000000000000000000000000000000000000000815260040161142590614de7565b60405180910390fd5b61143e8989898989898989613a1e565b7f0c14653fca65d1b22631a36a53bd2a7153579eb0180192d23b52babb69c28050898560405161146f9291906152d6565b60405180910390a16001905098975050505050505050565b61148f6141a7565b611497613d8a565b8173ffffffffffffffffffffffffffffffffffffffff16600260008473ffffffffffffffffffffffffffffffffffffffff1673ffffffffffffffffffffffffffffffffffffffff16815260200190815260200160002060010160009054906101000a900473ffffffffffffffffffffffffffffffffffffffff1673ffffffffffffffffffffffffffffffffffffffff1614611567576040517f08c379a000000000000000000000000000000000000000000000000000000000815260040161155e9061534b565b60405180910390fd5b600260008373ffffffffffffffffffffffffffffffffffffffff1673ffffffffffffffffffffffffffffffffffffffff1681526020019081526020016000206040518060400160405290816000820180546115c1906150a9565b80601f01602080910402602001604051908101604052809291908181526020018280546115ed906150a9565b801561163a5780601f1061160f5761010080835404028352916020019161163a565b820191906000526020600020905b81548152906001019060200180831161161d57829003601f168201915b505050505081526020016001820160009054906101000a900473ffffffffffffffffffffffffffffffffffffffff1673ffffffffffffffffffffffffffffffffffffffff1673ffffffffffffffffffffffffffffffffffffffff16815250509050919050565b60006116aa613d8a565b8173ffffffffffffffffffffffffffffffffffffffff16600260008473ffffffffffffffffffffffffffffffffffffffff1673ffffffffffffffffffffffffffffffffffffffff16815260200190815260200160002060010160009054906101000a900473ffffffffffffffffffffffffffffffffffffffff1673ffffffffffffffffffffffffffffffffffffffff160361177a576040517f08c379a0000000000000000000000000000000000000000000000000000000008152600401611771906153b7565b60405180910390fd5b60405180604001604052808481526020018373ffffffffffffffffffffffffffffffffffffffff16815250600260008473ffffffffffffffffffffffffffffffffffffffff1673ffffffffffffffffffffffffffffffffffffffff16815260200190815260200160002060008201518160000190816117f99190615583565b5060208201518160010160006101000a81548173ffffffffffffffffffffffffffffffffffffffff021916908373ffffffffffffffffffffffffffffffffffffffff16021790555090505081600360008473ffffffffffffffffffffffffffffffffffffffff1673ffffffffffffffffffffffffffffffffffffffff16815260200190815260200160002060000160006101000a81548173ffffffffffffffffffffffffffffffffffffffff021916908373ffffffffffffffffffffffffffffffffffffffff1602179055506000600360008473ffffffffffffffffffffffffffffffffffffffff1673ffffffffffffffffffffffffffffffffffffffff168152602001908152602001600020600101819055507f19cb05bcb9f3a5aa3801619041099231656235762a3599eed02cdcac38facd1c838360405161193e929190615655565b60405180910390a16001905092915050565b600061195a61320a565b8873ffffffffffffffffffffffffffffffffffffffff16600160008b73ffffffffffffffffffffffffffffffffffffffff1673ffffffffffffffffffffffffffffffffffffffff16815260200190815260200160002060000160009054906101000a900473ffffffffffffffffffffffffffffffffffffffff1673ffffffffffffffffffffffffffffffffffffffff1603611a2a576040517f08c379a0000000000000000000000000000000000000000000000000000000008152600401611a21906156d1565b60405180910390fd5b611a3a8989898989898989613a1e565b611a4389611c20565b507f1d22f26dee56193a2da8b325a26e02b936d68be9f49c0a6f92534464aa8f2ecf8985604051611a759291906152d6565b60405180910390a16001905098975050505050505050565b6000611a97613d8a565b8173ffffffffffffffffffffffffffffffffffffffff16600260008473ffffffffffffffffffffffffffffffffffffffff1673ffffffffffffffffffffffffffffffffffffffff16815260200190815260200160002060010160009054906101000a900473ffffffffffffffffffffffffffffffffffffffff1673ffffffffffffffffffffffffffffffffffffffff1614611b67576040517f08c379a0000000000000000000000000000000000000000000000000000000008152600401611b5e9061534b565b60405180910390fd5b600260008373ffffffffffffffffffffffffffffffffffffffff1673ffffffffffffffffffffffffffffffffffffffff16815260200190815260200160002060008082016000611bb791906141d7565b6001820160006101000a81549073ffffffffffffffffffffffffffffffffffffffff021916905550507f4630061df51c52d44a3987b904c6ff220da2cbdeff03ce8750cd14652cae0c6c82604051611c0f9190614cc8565b60405180910390a160019050919050565b6000611c2a61320a565b8173ffffffffffffffffffffffffffffffffffffffff16600160008473ffffffffffffffffffffffffffffffffffffffff1673ffffffffffffffffffffffffffffffffffffffff16815260200190815260200160002060000160009054906101000a900473ffffffffffffffffffffffffffffffffffffffff1673ffffffffffffffffffffffffffffffffffffffff1614611cfa576040517f08c379a0000000000000000000000000000000000000000000000000000000008152600401611cf19061573d565b60405180910390fd5b60001515611d088333612ed6565b151514611d4a576040517f08c379a0000000000000000000000000000000000000000000000000000000008152600401611d41906157a9565b60405180910390fd5b60001515611d5783613e1a565b151514611d99576040517f08c379a0000000000000000000000000000000000000000000000000000000008152600401611d9090615815565b60405180910390fd5b600360003373ffffffffffffffffffffffffffffffffffffffff1673ffffffffffffffffffffffffffffffffffffffff1681526020019081526020016000206002016040518060400160405280600360003373ffffffffffffffffffffffffffffffffffffffff1673ffffffffffffffffffffffffffffffffffffffff1681526020019081526020016000206001015481526020018473ffffffffffffffffffffffffffffffffffffffff1681525090806001815401808255809150506001900390600052602060002090600202016000909190919091506000820151816000015560208201518160010160006101000a81548173ffffffffffffffffffffffffffffffffffffffff021916908373ffffffffffffffffffffffffffffffffffffffff1602179055505050600460008373ffffffffffffffffffffffffffffffffffffffff1673ffffffffffffffffffffffffffffffffffffffff1681526020019081526020016000206000016040518060400160405280600360003373ffffffffffffffffffffffffffffffffffffffff1673ffffffffffffffffffffffffffffffffffffffff1681526020019081526020016000206001015481526020013373ffffffffffffffffffffffffffffffffffffffff1681525090806001815401808255809150506001900390600052602060002090600202016000909190919091506000820151816000015560208201518160010160006101000a81548173ffffffffffffffffffffffffffffffffffffffff021916908373ffffffffffffffffffffffffffffffffffffffff1602179055505050600360003373ffffffffffffffffffffffffffffffffffffffff1673ffffffffffffffffffffffffffffffffffffffff168152602001908152602001600020600101600081548092919061204290615864565b91905055507f218ec21215c511260c909dd233fc0cb1190ef18c6eba8027742533695f40eaad6001600360003373ffffffffffffffffffffffffffffffffffffffff1673ffffffffffffffffffffffffffffffffffffffff168152602001908152602001600020600101546120b791906158ac565b338460006040516120cb9493929190615035565b60405180910390a160019050919050565b60606120e6612c03565b612125576040517f08c379a000000000000000000000000000000000000000000000000000000000815260040161211c9061592c565b60405180910390fd5b6000600460003373ffffffffffffffffffffffffffffffffffffffff1673ffffffffffffffffffffffffffffffffffffffff1681526020019081526020016000206000018054905067ffffffffffffffff81111561218657612185614698565b5b6040519080825280602002602001820160405280156121bf57816020015b6121ac614217565b8152602001906001900390816121a45790505b5090506000805b600460003373ffffffffffffffffffffffffffffffffffffffff1673ffffffffffffffffffffffffffffffffffffffff1681526020019081526020016000206000018054905081101561231f57600460003373ffffffffffffffffffffffffffffffffffffffff1673ffffffffffffffffffffffffffffffffffffffff168152602001908152602001600020600001818154811061226757612266614f2e565b5b9060005260206000209060020201604051806040016040529081600082015481526020016001820160009054906101000a900473ffffffffffffffffffffffffffffffffffffffff1673ffffffffffffffffffffffffffffffffffffffff1673ffffffffffffffffffffffffffffffffffffffff16815250508383815181106122f3576122f2614f2e565b5b6020026020010181905250818061230990615864565b925050808061231790615864565b9150506121c6565b50819250505090565b612330614247565b612338612c03565b612377576040517f08c379a000000000000000000000000000000000000000000000000000000000815260040161236e9061592c565b60405180910390fd5b600160003373ffffffffffffffffffffffffffffffffffffffff1673ffffffffffffffffffffffffffffffffffffffff168152602001908152602001600020604051806101200160405290816000820160009054906101000a900473ffffffffffffffffffffffffffffffffffffffff1673ffffffffffffffffffffffffffffffffffffffff1673ffffffffffffffffffffffffffffffffffffffff168152602001600182018054612428906150a9565b80601f0160208091040260200160405190810160405280929190818152602001828054612454906150a9565b80156124a15780601f10612476576101008083540402835291602001916124a1565b820191906000526020600020905b81548152906001019060200180831161248457829003601f168201915b505050505081526020016002820180546124ba906150a9565b80601f01602080910402602001604051908101604052809291908181526020018280546124e6906150a9565b80156125335780601f1061250857610100808354040283529160200191612533565b820191906000526020600020905b81548152906001019060200180831161251657829003601f168201915b5050505050815260200160038201805461254c906150a9565b80601f0160208091040260200160405190810160405280929190818152602001828054612578906150a9565b80156125c55780601f1061259a576101008083540402835291602001916125c5565b820191906000526020600020905b8154815290600101906020018083116125a857829003601f168201915b505050505081526020016004820180546125de906150a9565b80601f016020809104026020016040519081016040528092919081815260200182805461260a906150a9565b80156126575780601f1061262c57610100808354040283529160200191612657565b820191906000526020600020905b81548152906001019060200180831161263a57829003601f168201915b505050505081526020016005820154815260200160068201548152602001600782018054806020026020016040519081016040528092919081815260200182805480156126f957602002820191906000526020600020905b8160009054906101000a900473ffffffffffffffffffffffffffffffffffffffff1673ffffffffffffffffffffffffffffffffffffffff16815260200190600101908083116126af575b505050505081526020016008820160009054906101000a900460ff161515151581525050905090565b60003373ffffffffffffffffffffffffffffffffffffffff1660008054906101000a900473ffffffffffffffffffffffffffffffffffffffff1673ffffffffffffffffffffffffffffffffffffffff16036127805760019050612785565b600090505b90565b600060608060608060008061279d8833612ed6565b6127dc576040517f08c379a00000000000000000000000000000000000000000000000000000000081526004016127d390615998565b60405180910390fd5b600160008973ffffffffffffffffffffffffffffffffffffffff1673ffffffffffffffffffffffffffffffffffffffff16815260200190815260200160002060080160009054906101000a900460ff16600160008a73ffffffffffffffffffffffffffffffffffffffff1673ffffffffffffffffffffffffffffffffffffffff168152602001908152602001600020600101600160008b73ffffffffffffffffffffffffffffffffffffffff1673ffffffffffffffffffffffffffffffffffffffff168152602001908152602001600020600201600160008c73ffffffffffffffffffffffffffffffffffffffff1673ffffffffffffffffffffffffffffffffffffffff168152602001908152602001600020600301600160008d73ffffffffffffffffffffffffffffffffffffffff1673ffffffffffffffffffffffffffffffffffffffff168152602001908152602001600020600401600160008e73ffffffffffffffffffffffffffffffffffffffff1673ffffffffffffffffffffffffffffffffffffffff16815260200190815260200160002060050154600160008f73ffffffffffffffffffffffffffffffffffffffff1673ffffffffffffffffffffffffffffffffffffffff168152602001908152602001600020600601548580546129c6906150a9565b80601f01602080910402602001604051908101604052809291908181526020018280546129f2906150a9565b8015612a3f5780601f10612a1457610100808354040283529160200191612a3f565b820191906000526020600020905b815481529060010190602001808311612a2257829003601f168201915b50505050509550848054612a52906150a9565b80601f0160208091040260200160405190810160405280929190818152602001828054612a7e906150a9565b8015612acb5780601f10612aa057610100808354040283529160200191612acb565b820191906000526020600020905b815481529060010190602001808311612aae57829003601f168201915b50505050509450838054612ade906150a9565b80601f0160208091040260200160405190810160405280929190818152602001828054612b0a906150a9565b8015612b575780601f10612b2c57610100808354040283529160200191612b57565b820191906000526020600020905b815481529060010190602001808311612b3a57829003601f168201915b50505050509350828054612b6a906150a9565b80601f0160208091040260200160405190810160405280929190818152602001828054612b96906150a9565b8015612be35780601f10612bb857610100808354040283529160200191612be3565b820191906000526020600020905b815481529060010190602001808311612bc657829003601f168201915b505050505092509650965096509650965096509650919395979092949650565b60003373ffffffffffffffffffffffffffffffffffffffff16600160003373ffffffffffffffffffffffffffffffffffffffff1673ffffffffffffffffffffffffffffffffffffffff16815260200190815260200160002060000160009054906101000a900473ffffffffffffffffffffffffffffffffffffffff1673ffffffffffffffffffffffffffffffffffffffff1603612ca35760019050612ca8565b600090505b90565b6060612cb561320a565b6000600360003373ffffffffffffffffffffffffffffffffffffffff1673ffffffffffffffffffffffffffffffffffffffff1681526020019081526020016000206001015467ffffffffffffffff811115612d1357612d12614698565b5b604051908082528060200260200182016040528015612d4c57816020015b612d39614217565b815260200190600190039081612d315790505b5090506000805b600360003373ffffffffffffffffffffffffffffffffffffffff1673ffffffffffffffffffffffffffffffffffffffff16815260200190815260200160002060010154811015612ea957600360003373ffffffffffffffffffffffffffffffffffffffff1673ffffffffffffffffffffffffffffffffffffffff1681526020019081526020016000206002018181548110612df157612df0614f2e565b5b9060005260206000209060020201604051806040016040529081600082015481526020016001820160009054906101000a900473ffffffffffffffffffffffffffffffffffffffff1673ffffffffffffffffffffffffffffffffffffffff1673ffffffffffffffffffffffffffffffffffffffff1681525050838381518110612e7d57612e7c614f2e565b5b60200260200101819052508180612e9390615864565b9250508080612ea190615864565b915050612d53565b50819250505090565b60008054906101000a900473ffffffffffffffffffffffffffffffffffffffff1681565b600080600090505b600160008573ffffffffffffffffffffffffffffffffffffffff1673ffffffffffffffffffffffffffffffffffffffff16815260200190815260200160002060070180549050811015612ff9578273ffffffffffffffffffffffffffffffffffffffff16600160008673ffffffffffffffffffffffffffffffffffffffff1673ffffffffffffffffffffffffffffffffffffffff1681526020019081526020016000206007018281548110612f9657612f95614f2e565b5b9060005260206000200160009054906101000a900473ffffffffffffffffffffffffffffffffffffffff1673ffffffffffffffffffffffffffffffffffffffff1603612fe6576001915050612fff565b8080612ff190615864565b915050612ede565b60009150505b92915050565b60006130118383613f4c565b9050600160008473ffffffffffffffffffffffffffffffffffffffff1673ffffffffffffffffffffffffffffffffffffffff16815260200190815260200160002060070160018060008673ffffffffffffffffffffffffffffffffffffffff1673ffffffffffffffffffffffffffffffffffffffff168152602001908152602001600020600701805490506130a691906158ac565b815481106130b7576130b6614f2e565b5b9060005260206000200160009054906101000a900473ffffffffffffffffffffffffffffffffffffffff16600160008573ffffffffffffffffffffffffffffffffffffffff1673ffffffffffffffffffffffffffffffffffffffff168152602001908152602001600020600701828154811061313657613135614f2e565b5b9060005260206000200160006101000a81548173ffffffffffffffffffffffffffffffffffffffff021916908373ffffffffffffffffffffffffffffffffffffffff160217905550600160008473ffffffffffffffffffffffffffffffffffffffff1673ffffffffffffffffffffffffffffffffffffffff1681526020019081526020016000206007018054806131d0576131cf6159b8565b5b6001900381819060005260206000200160006101000a81549073ffffffffffffffffffffffffffffffffffffffff02191690559055505050565b3373ffffffffffffffffffffffffffffffffffffffff16600260003373ffffffffffffffffffffffffffffffffffffffff1673ffffffffffffffffffffffffffffffffffffffff16815260200190815260200160002060010160009054906101000a900473ffffffffffffffffffffffffffffffffffffffff1673ffffffffffffffffffffffffffffffffffffffff16146132da576040517f08c379a00000000000000000000000000000000000000000000000000000000081526004016132d190615a33565b60405180910390fd5b565b60006132e88383614076565b9050600360008373ffffffffffffffffffffffffffffffffffffffff1673ffffffffffffffffffffffffffffffffffffffff1681526020019081526020016000206002016001600360008573ffffffffffffffffffffffffffffffffffffffff1673ffffffffffffffffffffffffffffffffffffffff1681526020019081526020016000206002018054905061337e91906158ac565b8154811061338f5761338e614f2e565b5b9060005260206000209060020201600360008473ffffffffffffffffffffffffffffffffffffffff1673ffffffffffffffffffffffffffffffffffffffff16815260200190815260200160002060020185815481106133f1576133f0614f2e565b5b9060005260206000209060020201600082015481600001556001820160009054906101000a900473ffffffffffffffffffffffffffffffffffffffff168160010160006101000a81548173ffffffffffffffffffffffffffffffffffffffff021916908373ffffffffffffffffffffffffffffffffffffffff160217905550905050600360008373ffffffffffffffffffffffffffffffffffffffff1673ffffffffffffffffffffffffffffffffffffffff1681526020019081526020016000206002018054806134c5576134c46159b8565b5b60019003818190600052602060002090600202016000808201600090556001820160006101000a81549073ffffffffffffffffffffffffffffffffffffffff021916905550509055600460008473ffffffffffffffffffffffffffffffffffffffff1673ffffffffffffffffffffffffffffffffffffffff1681526020019081526020016000206000016001600460008673ffffffffffffffffffffffffffffffffffffffff1673ffffffffffffffffffffffffffffffffffffffff168152602001908152602001600020600001805490506135a191906158ac565b815481106135b2576135b1614f2e565b5b9060005260206000209060020201600460008573ffffffffffffffffffffffffffffffffffffffff1673ffffffffffffffffffffffffffffffffffffffff168152602001908152602001600020600001828154811061361457613613614f2e565b5b9060005260206000209060020201600082015481600001556001820160009054906101000a900473ffffffffffffffffffffffffffffffffffffffff168160010160006101000a81548173ffffffffffffffffffffffffffffffffffffffff021916908373ffffffffffffffffffffffffffffffffffffffff160217905550905050600460008473ffffffffffffffffffffffffffffffffffffffff1673ffffffffffffffffffffffffffffffffffffffff1681526020019081526020016000206000018054806136e8576136e76159b8565b5b60019003818190600052602060002090600202016000808201600090556001820160006101000a81549073ffffffffffffffffffffffffffffffffffffffff02191690555050905583600360003373ffffffffffffffffffffffffffffffffffffffff1673ffffffffffffffffffffffffffffffffffffffff16815260200190815260200160002060020180549050141580156137c757506001600360008473ffffffffffffffffffffffffffffffffffffffff1673ffffffffffffffffffffffffffffffffffffffff16815260200190815260200160002060010154115b156139875783600360008473ffffffffffffffffffffffffffffffffffffffff1673ffffffffffffffffffffffffffffffffffffffff168152602001908152602001600020600201858154811061382157613820614f2e565b5b9060005260206000209060020201600001819055506000600360008473ffffffffffffffffffffffffffffffffffffffff1673ffffffffffffffffffffffffffffffffffffffff168152602001908152602001600020600201858154811061388c5761388b614f2e565b5b906000526020600020906002020160010160009054906101000a900473ffffffffffffffffffffffffffffffffffffffff1690506000600460008373ffffffffffffffffffffffffffffffffffffffff1673ffffffffffffffffffffffffffffffffffffffff168152602001908152602001600020600001805490501115613985576139188184614076565b915084600460008373ffffffffffffffffffffffffffffffffffffffff1673ffffffffffffffffffffffffffffffffffffffff168152602001908152602001600020600001838154811061396f5761396e614f2e565b5b9060005260206000209060020201600001819055505b505b600360008373ffffffffffffffffffffffffffffffffffffffff1673ffffffffffffffffffffffffffffffffffffffff16815260200190815260200160002060010160008154809291906139da90615a53565b91905055507f5bc31e521401c7e4fbe27cc8e953ddcd66ce6cc84d810d1850450e7964029d958483604051613a10929190615a7c565b60405180910390a150505050565b6000875111613a2c57600080fd5b6000865111613a3a57600080fd5b6000845111613a4857600080fd5b6000855111613a5657600080fd5b87600160008a73ffffffffffffffffffffffffffffffffffffffff1673ffffffffffffffffffffffffffffffffffffffff16815260200190815260200160002060000160006101000a81548173ffffffffffffffffffffffffffffffffffffffff021916908373ffffffffffffffffffffffffffffffffffffffff16021790555086600160008a73ffffffffffffffffffffffffffffffffffffffff1673ffffffffffffffffffffffffffffffffffffffff1681526020019081526020016000206001019081613b269190615583565b5085600160008a73ffffffffffffffffffffffffffffffffffffffff1673ffffffffffffffffffffffffffffffffffffffff1681526020019081526020016000206002019081613b769190615583565b5084600160008a73ffffffffffffffffffffffffffffffffffffffff1673ffffffffffffffffffffffffffffffffffffffff1681526020019081526020016000206003019081613bc69190615583565b5083600160008a73ffffffffffffffffffffffffffffffffffffffff1673ffffffffffffffffffffffffffffffffffffffff1681526020019081526020016000206004019081613c169190615583565b5082600160008a73ffffffffffffffffffffffffffffffffffffffff1673ffffffffffffffffffffffffffffffffffffffff16815260200190815260200160002060080160006101000a81548160ff02191690831515021790555081600160008a73ffffffffffffffffffffffffffffffffffffffff1673ffffffffffffffffffffffffffffffffffffffff1681526020019081526020016000206005018190555080600160008a73ffffffffffffffffffffffffffffffffffffffff1673ffffffffffffffffffffffffffffffffffffffff1681526020019081526020016000206006018190555087600460008a73ffffffffffffffffffffffffffffffffffffffff1673ffffffffffffffffffffffffffffffffffffffff16815260200190815260200160002060010160006101000a81548173ffffffffffffffffffffffffffffffffffffffff021916908373ffffffffffffffffffffffffffffffffffffffff1602179055505050505050505050565b3373ffffffffffffffffffffffffffffffffffffffff1660008054906101000a900473ffffffffffffffffffffffffffffffffffffffff1673ffffffffffffffffffffffffffffffffffffffff1614613e18576040517f08c379a0000000000000000000000000000000000000000000000000000000008152600401613e0f90615af1565b60405180910390fd5b565b600080600090505b600360003373ffffffffffffffffffffffffffffffffffffffff1673ffffffffffffffffffffffffffffffffffffffff16815260200190815260200160002060010154811015613f41578273ffffffffffffffffffffffffffffffffffffffff16600360003373ffffffffffffffffffffffffffffffffffffffff1673ffffffffffffffffffffffffffffffffffffffff1681526020019081526020016000206002018281548110613ed757613ed6614f2e565b5b906000526020600020906002020160010160009054906101000a900473ffffffffffffffffffffffffffffffffffffffff1673ffffffffffffffffffffffffffffffffffffffff1603613f2e576001915050613f47565b8080613f3990615864565b915050613e22565b60009150505b919050565b600080600090505b600160008573ffffffffffffffffffffffffffffffffffffffff1673ffffffffffffffffffffffffffffffffffffffff1681526020019081526020016000206007018054905081101561406e578273ffffffffffffffffffffffffffffffffffffffff16600160008673ffffffffffffffffffffffffffffffffffffffff1673ffffffffffffffffffffffffffffffffffffffff168152602001908152602001600020600701828154811061400c5761400b614f2e565b5b9060005260206000200160009054906101000a900473ffffffffffffffffffffffffffffffffffffffff1673ffffffffffffffffffffffffffffffffffffffff160361405b5780915050614070565b808061406690615864565b915050613f54565b505b92915050565b600080600090505b600460008573ffffffffffffffffffffffffffffffffffffffff1673ffffffffffffffffffffffffffffffffffffffff1681526020019081526020016000206000018054905081101561419f578273ffffffffffffffffffffffffffffffffffffffff16600460008673ffffffffffffffffffffffffffffffffffffffff1673ffffffffffffffffffffffffffffffffffffffff168152602001908152602001600020600001828154811061413657614135614f2e565b5b906000526020600020906002020160010160009054906101000a900473ffffffffffffffffffffffffffffffffffffffff1673ffffffffffffffffffffffffffffffffffffffff160361418c57809150506141a1565b808061419790615864565b91505061407e565b505b92915050565b604051806040016040528060608152602001600073ffffffffffffffffffffffffffffffffffffffff1681525090565b5080546141e3906150a9565b6000825580601f106141f55750614214565b601f01602090049060005260206000209081019061421391906142ab565b5b50565b604051806040016040528060008152602001600073ffffffffffffffffffffffffffffffffffffffff1681525090565b604051806101200160405280600073ffffffffffffffffffffffffffffffffffffffff168152602001606081526020016060815260200160608152602001606081526020016000815260200160008152602001606081526020016000151581525090565b5b808211156142c45760008160009055506001016142ac565b5090565b6000604051905090565b600080fd5b600080fd5b600073ffffffffffffffffffffffffffffffffffffffff82169050919050565b6000614307826142dc565b9050919050565b614317816142fc565b811461432257600080fd5b50565b6000813590506143348161430e565b92915050565b6000602082840312156143505761434f6142d2565b5b600061435e84828501614325565b91505092915050565b60008115159050919050565b61437c81614367565b82525050565b60006020820190506143976000830184614373565b92915050565b6000819050919050565b6143b08161439d565b81146143bb57600080fd5b50565b6000813590506143cd816143a7565b92915050565b6143dc81614367565b81146143e757600080fd5b50565b6000813590506143f9816143d3565b92915050565b600080600060608486031215614418576144176142d2565b5b6000614426868287016143be565b935050602061443786828701614325565b9250506040614448868287016143ea565b9150509250925092565b600081519050919050565b600082825260208201905092915050565b60005b8381101561448c578082015181840152602081019050614471565b60008484015250505050565b6000601f19601f8301169050919050565b60006144b482614452565b6144be818561445d565b93506144ce81856020860161446e565b6144d781614498565b840191505092915050565b6144eb816142fc565b82525050565b6000604083016000830151848203600086015261450e82826144a9565b915050602083015161452360208601826144e2565b508091505092915050565b6000602082019050818103600083015261454881846144f1565b905092915050565b600081519050919050565b600082825260208201905092915050565b6000819050602082019050919050565b600061458883836144e2565b60208301905092915050565b6000602082019050919050565b60006145ac82614550565b6145b6818561455b565b93506145c18361456c565b8060005b838110156145f25781516145d9888261457c565b97506145e483614594565b9250506001810190506145c5565b5085935050505092915050565b6000602082019050818103600083015261461981846145a1565b905092915050565b600060208284031215614637576146366142d2565b5b6000614645848285016143be565b91505092915050565b60008060408385031215614665576146646142d2565b5b6000614673858286016143be565b925050602061468485828601614325565b9150509250929050565b600080fd5b600080fd5b7f4e487b7100000000000000000000000000000000000000000000000000000000600052604160045260246000fd5b6146d082614498565b810181811067ffffffffffffffff821117156146ef576146ee614698565b5b80604052505050565b60006147026142c8565b905061470e82826146c7565b919050565b600067ffffffffffffffff82111561472e5761472d614698565b5b61473782614498565b9050602081019050919050565b82818337600083830152505050565b600061476661476184614713565b6146f8565b90508281526020810184848401111561478257614781614693565b5b61478d848285614744565b509392505050565b600082601f8301126147aa576147a961468e565b5b81356147ba848260208601614753565b91505092915050565b600080600080600080600080610100898b0312156147e4576147e36142d2565b5b60006147f28b828c01614325565b985050602089013567ffffffffffffffff811115614813576148126142d7565b5b61481f8b828c01614795565b975050604089013567ffffffffffffffff8111156148405761483f6142d7565b5b61484c8b828c01614795565b965050606089013567ffffffffffffffff81111561486d5761486c6142d7565b5b6148798b828c01614795565b955050608089013567ffffffffffffffff81111561489a576148996142d7565b5b6148a68b828c01614795565b94505060a06148b78b828c016143ea565b93505060c06148c88b828c016143be565b92505060e06148d98b828c016143be565b9150509295985092959890939650565b60008060408385031215614900576148ff6142d2565b5b600083013567ffffffffffffffff81111561491e5761491d6142d7565b5b61492a85828601614795565b925050602061493b85828601614325565b9150509250929050565b600081519050919050565b600082825260208201905092915050565b6000819050602082019050919050565b61497a8161439d565b82525050565b6040820160008201516149966000850182614971565b5060208201516149a960208501826144e2565b50505050565b60006149bb8383614980565b60408301905092915050565b6000602082019050919050565b60006149df82614945565b6149e98185614950565b93506149f483614961565b8060005b83811015614a25578151614a0c88826149af565b9750614a17836149c7565b9250506001810190506149f8565b5085935050505092915050565b60006020820190508181036000830152614a4c81846149d4565b905092915050565b600082825260208201905092915050565b6000614a7082614550565b614a7a8185614a54565b9350614a858361456c565b8060005b83811015614ab6578151614a9d888261457c565b9750614aa883614594565b925050600181019050614a89565b5085935050505092915050565b614acc81614367565b82525050565b600061012083016000830151614aeb60008601826144e2565b5060208301518482036020860152614b0382826144a9565b91505060408301518482036040860152614b1d82826144a9565b91505060608301518482036060860152614b3782826144a9565b91505060808301518482036080860152614b5182826144a9565b91505060a0830151614b6660a0860182614971565b5060c0830151614b7960c0860182614971565b5060e083015184820360e0860152614b918282614a65565b915050610100830151614ba8610100860182614ac3565b508091505092915050565b60006020820190508181036000830152614bcd8184614ad2565b905092915050565b600082825260208201905092915050565b6000614bf182614452565b614bfb8185614bd5565b9350614c0b81856020860161446e565b614c1481614498565b840191505092915050565b614c288161439d565b82525050565b600060e082019050614c43600083018a614373565b8181036020830152614c558189614be6565b90508181036040830152614c698188614be6565b90508181036060830152614c7d8187614be6565b90508181036080830152614c918186614be6565b9050614ca060a0830185614c1f565b614cad60c0830184614c1f565b98975050505050505050565b614cc2816142fc565b82525050565b6000602082019050614cdd6000830184614cb9565b92915050565b7f596f7520646f6e74206861766520617574686f7269747920746f207265766f6b60008201527f6520616363657373000000000000000000000000000000000000000000000000602082015250565b6000614d3f602883614bd5565b9150614d4a82614ce3565b604082019050919050565b60006020820190508181036000830152614d6e81614d32565b9050919050565b7f596f7520646f6e7420686176652061636365737320746f20746869732075736560008201527f7200000000000000000000000000000000000000000000000000000000000000602082015250565b6000614dd1602183614bd5565b9150614ddc82614d75565b604082019050919050565b60006020820190508181036000830152614e0081614dc4565b9050919050565b6000604082019050614e1c6000830185614cb9565b614e296020830184614cb9565b9392505050565b7f5573657220646f65736e27742065786973740000000000000000000000000000600082015250565b6000614e66601283614bd5565b9150614e7182614e30565b602082019050919050565b60006020820190508181036000830152614e9581614e59565b9050919050565b7f596f7520646f6e74206861766520617574686f7269747920746f20676976652060008201527f6163636573730000000000000000000000000000000000000000000000000000602082015250565b6000614ef8602683614bd5565b9150614f0382614e9c565b604082019050919050565b60006020820190508181036000830152614f2781614eeb565b9050919050565b7f4e487b7100000000000000000000000000000000000000000000000000000000600052603260045260246000fd5b7f55736572206e6f742076616c6964000000000000000000000000000000000000600082015250565b6000614f93600e83614bd5565b9150614f9e82614f5d565b602082019050919050565b60006020820190508181036000830152614fc281614f86565b9050919050565b7f5265717565737473206e6f7420666f756e640000000000000000000000000000600082015250565b6000614fff601283614bd5565b915061500a82614fc9565b602082019050919050565b6000602082019050818103600083015261502e81614ff2565b9050919050565b600060808201905061504a6000830187614c1f565b6150576020830186614cb9565b6150646040830185614cb9565b6150716060830184614373565b95945050505050565b7f4e487b7100000000000000000000000000000000000000000000000000000000600052602260045260246000fd5b600060028204905060018216806150c157607f821691505b6020821081036150d4576150d361507a565b5b50919050565b7f596f7520646f6e74206861766520617574686f72697479000000000000000000600082015250565b6000615110601783614bd5565b915061511b826150da565b602082019050919050565b6000602082019050818103600083015261513f81615103565b9050919050565b7f596f7520646f6e74206861766520617574686f7269747920746f2064656c657460008201527f6500000000000000000000000000000000000000000000000000000000000000602082015250565b60006151a2602183614bd5565b91506151ad82615146565b604082019050919050565b600060208201905081810360008301526151d181615195565b9050919050565b7f5265717565737420646f65736e74206578697374000000000000000000000000600082015250565b600061520e601483614bd5565b9150615219826151d8565b602082019050919050565b6000602082019050818103600083015261523d81615201565b9050919050565b7f5468697320706172746963756c6172206f7267616e697a6174696f6e7320646f60008201527f65736e7420657869737400000000000000000000000000000000000000000000602082015250565b60006152a0602a83614bd5565b91506152ab82615244565b604082019050919050565b600060208201905081810360008301526152cf81615293565b9050919050565b60006040820190506152eb6000830185614cb9565b6152f86020830184614373565b9392505050565b7f4f726720646f65736e7420657869737400000000000000000000000000000000600082015250565b6000615335601083614bd5565b9150615340826152ff565b602082019050919050565b6000602082019050818103600083015261536481615328565b9050919050565b7f4f726720616c7265616479206164646564000000000000000000000000000000600082015250565b60006153a1601183614bd5565b91506153ac8261536b565b602082019050919050565b600060208201905081810360008301526153d081615394565b9050919050565b60008190508160005260206000209050919050565b60006020601f8301049050919050565b600082821b905092915050565b6000600883026154397fffffffffffffffffffffffffffffffffffffffffffffffffffffffffffffffff826153fc565b61544386836153fc565b95508019841693508086168417925050509392505050565b6000819050919050565b600061548061547b6154768461439d565b61545b565b61439d565b9050919050565b6000819050919050565b61549a83615465565b6154ae6154a682615487565b848454615409565b825550505050565b600090565b6154c36154b6565b6154ce818484615491565b505050565b5b818110156154f2576154e76000826154bb565b6001810190506154d4565b5050565b601f82111561553757615508816153d7565b615511846153ec565b81016020851015615520578190505b61553461552c856153ec565b8301826154d3565b50505b505050565b600082821c905092915050565b600061555a6000198460080261553c565b1980831691505092915050565b60006155738383615549565b9150826002028217905092915050565b61558c82614452565b67ffffffffffffffff8111156155a5576155a4614698565b5b6155af82546150a9565b6155ba8282856154f6565b600060209050601f8311600181146155ed57600084156155db578287015190505b6155e58582615567565b86555061564d565b601f1984166155fb866153d7565b60005b82811015615623578489015182556001820191506020850194506020810190506155fe565b86831015615640578489015161563c601f891682615549565b8355505b6001600288020188555050505b505050505050565b6000604082019050818103600083015261566f8185614be6565b905061567e6020830184614cb9565b9392505050565b7f5573657220616c72656164792065786973747300000000000000000000000000600082015250565b60006156bb601383614bd5565b91506156c682615685565b602082019050919050565b600060208201905081810360008301526156ea816156ae565b9050919050565b7f437573746f6d657220646f65736e742065786973747300000000000000000000600082015250565b6000615727601683614bd5565b9150615732826156f1565b602082019050919050565b600060208201905081810360008301526157568161571a565b9050919050565b7f416c726561647920686176652061636365737300000000000000000000000000600082015250565b6000615793601383614bd5565b915061579e8261575d565b602082019050919050565b600060208201905081810360008301526157c281615786565b9050919050565b7f5265717565737420416c72656164792045786973747300000000000000000000600082015250565b60006157ff601683614bd5565b915061580a826157c9565b602082019050919050565b6000602082019050818103600083015261582e816157f2565b9050919050565b7f4e487b7100000000000000000000000000000000000000000000000000000000600052601160045260246000fd5b600061586f8261439d565b91507fffffffffffffffffffffffffffffffffffffffffffffffffffffffffffffffff82036158a1576158a0615835565b5b600182019050919050565b60006158b78261439d565b91506158c28361439d565b92508282039050818111156158da576158d9615835565b5b92915050565b7f437573746f6d6572206e6f742076616c69640000000000000000000000000000600082015250565b6000615916601283614bd5565b9150615921826158e0565b602082019050919050565b6000602082019050818103600083015261594581615909565b9050919050565b7f55736572206861736e7420676976656e20746865697220636f6e73656e740000600082015250565b6000615982601e83614bd5565b915061598d8261594c565b602082019050919050565b600060208201905081810360008301526159b181615975565b9050919050565b7f4e487b7100000000000000000000000000000000000000000000000000000000600052603160045260246000fd5b7f4f7267206e6f7420657869737400000000000000000000000000000000000000600082015250565b6000615a1d600d83614bd5565b9150615a28826159e7565b602082019050919050565b60006020820190508181036000830152615a4c81615a10565b9050919050565b6000615a5e8261439d565b915060008203615a7157615a70615835565b5b600182039050919050565b6000604082019050615a916000830185614c1f565b615a9e6020830184614cb9565b9392505050565b7f41646d696e206f6e6c7900000000000000000000000000000000000000000000600082015250565b6000615adb600a83614bd5565b9150615ae682615aa5565b602082019050919050565b60006020820190508181036000830152615b0a81615ace565b905091905056fea26469706673582212206678fa46f9e217b21f611277df6a89c3757f8fbcfc8f348802dde24399308bb764736f6c63430008130033",
  "immutableReferences": {},
  "source": "// SPDX-License-Identifier: MIT\npragma solidity >=0.4.22 <0.9.0;\n\ncontract Kyc {\n    address public admin;\n    struct Customer {\n        address custAddress;\n        string jsonHash;\n        string photoHash;\n        string citizenship_front_hash;\n        string citizenship_back_hash;\n        uint d;\n        uint n;\n        address[] organization;\n        bool kycStatus;\n    }\n\n    struct Organization {\n        string name;\n        address ethAddress;\n    }\n\n    struct kycRequest {\n        address ethAddress;\n        uint req_count;\n        kycRequestList[] kycrequestlist;\n    }\n\n    struct kycRequestList {\n        uint req_count;\n        address Address;\n    }\n\n    struct kycRequestCust {\n        kycRequestList[] kycrequestlist;\n        address custAddress;\n    }\n\n    constructor() {\n        admin = msg.sender;\n    }\n\n    mapping(address => Customer) customers;\n    mapping(address => Organization) organizations;\n    mapping(address => kycRequest) kycrequestsbyorg;\n    mapping(address => kycRequestCust) kycrequestsbycust;\n\n    event orgAdded(string name, address ethAddress);\n    event orgRemoved(address ethAddress);\n    event customerAdded(address custAddress, bool kycStatus);\n    event customerUpdated(address custAddress, bool kycStatus);\n    event requestAdded(\n        uint reqid,\n        address ethAddress,\n        address custAddress,\n        bool isAllowed\n    );\n    event requestRemoved(uint reqid, address ethAddress);\n    event accessGiven(\n        uint reqid,\n        address custAddress,\n        address ethAddress,\n        bool isAllowed\n    );\n    event accessRevoked(address custAddress, address ethAddress);\n    event kycRemoved(address custAddress, address ethAddress);\n\n    // Internal Function\n    function _isAdmin() private view {\n        require(admin == msg.sender, \"Admin only\");\n    }\n\n    function _isOrgValid() private view {\n        require(\n            organizations[msg.sender].ethAddress == msg.sender,\n            \"Org not exist\"\n        );\n    }\n\n    // Checks whether the requestor is admin\n    modifier isAdmin() {\n        _isAdmin();\n        _;\n    }\n\n    // Checks wheter the org exists or not\n    modifier isOrgValid() {\n        _isOrgValid();\n        _;\n    }\n\n    //Check if Org has access to the user KYC\n    function findOrg(\n        address _custaddress,\n        address ethAddress\n    ) internal view returns (bool) {\n        uint i = 0;\n        for (i; i < customers[_custaddress].organization.length; i++) {\n            if (customers[_custaddress].organization[i] == ethAddress) {\n                return true;\n            }\n        }\n        return false;\n    }\n\n    //Find the index of Org in KYC.organization array\n    function findOrgIndex(\n        address _custaddress,\n        address ethAddress\n    ) internal view returns (uint) {\n        uint i = 0;\n        for (i; i < customers[_custaddress].organization.length; i++) {\n            if (customers[_custaddress].organization[i] == ethAddress) {\n                return i;\n            }\n        }\n    }\n\n    function findRequestIndex(\n        address _custaddress,\n        address _ethAddress\n    ) internal view returns (uint) {\n        uint i = 0;\n        for (\n            i;\n            i < kycrequestsbycust[_custaddress].kycrequestlist.length;\n            i++\n        ) {\n            if (\n                kycrequestsbycust[_custaddress].kycrequestlist[i].Address ==\n                _ethAddress\n            ) {\n                return i;\n            }\n        }\n    }\n\n    //Check if request exist\n    function findRequest(address _custaddress) internal view returns (bool) {\n        uint i = 0;\n        for (i; i < kycrequestsbyorg[msg.sender].req_count; i++) {\n            if (\n                kycrequestsbyorg[msg.sender].kycrequestlist[i].Address ==\n                _custaddress\n            ) {\n                return true;\n            }\n        }\n        return false;\n    }\n\n    //Add organization ONLY BY ADMIN\n    function addOrg(\n        string memory _name,\n        address _ethAddress\n    ) public isAdmin returns (bool) {\n        require(\n            organizations[_ethAddress].ethAddress != _ethAddress,\n            \"Org already added\"\n        );\n        organizations[_ethAddress] = Organization(_name, _ethAddress);\n        kycrequestsbyorg[_ethAddress].ethAddress = _ethAddress;\n        kycrequestsbyorg[_ethAddress].req_count = 0;\n        emit orgAdded(_name, _ethAddress);\n        return true;\n    }\n\n    //Remove Organization ONLY BY ADMIN\n    function removeOrg(address _ethAddress) public isAdmin returns (bool) {\n        require(\n            organizations[_ethAddress].ethAddress == _ethAddress,\n            \"Org doesnt exist\"\n        );\n        delete organizations[_ethAddress];\n        emit orgRemoved(_ethAddress);\n        return true;\n    }\n\n    //Return Organization Info if it exists\n    function viewOrg(\n        address _ethAddress\n    ) public view isAdmin returns (Organization memory) {\n        require(\n            organizations[_ethAddress].ethAddress == _ethAddress,\n            \"Org doesnt exist\"\n        );\n        return organizations[_ethAddress];\n    }\n\n    function getYourOrgDetail()\n        public\n        view\n        isOrgValid\n        returns (Organization memory)\n    {\n        return organizations[msg.sender];\n    }\n\n    function validOrg() public view returns (bool) {\n        if (organizations[msg.sender].ethAddress == msg.sender) {\n            return true;\n        } else {\n            return false;\n        }\n    }\n\n    function validAdmin() public view returns (bool) {\n        if (admin == msg.sender) {\n            return true;\n        } else {\n            return false;\n        }\n    }\n\n    function validCust() public view returns (bool) {\n        if (customers[msg.sender].custAddress == msg.sender) {\n            return true;\n        } else {\n            return false;\n        }\n    }\n\n    function writeKYC(\n        address _custaddress,\n        string memory _jsonHash,\n        string memory _photohash,\n        string memory _citizenship_front_hash,\n        string memory _citizenship_back_hash,\n        bool _kycStatus,\n        uint _d,\n        uint _n\n    ) internal {\n        require(bytes(_jsonHash).length > 0);\n        require(bytes(_photohash).length > 0);\n        require(bytes(_citizenship_back_hash).length > 0);\n        require(bytes(_citizenship_front_hash).length > 0);\n        customers[_custaddress].custAddress = _custaddress;\n        customers[_custaddress].jsonHash = _jsonHash;\n        customers[_custaddress].photoHash = _photohash;\n        customers[_custaddress]\n            .citizenship_front_hash = _citizenship_front_hash;\n        customers[_custaddress].citizenship_back_hash = _citizenship_back_hash;\n        customers[_custaddress].kycStatus = _kycStatus;\n        customers[_custaddress].d = _d;\n        customers[_custaddress].n = _n;\n        kycrequestsbycust[_custaddress].custAddress = _custaddress;\n    }\n\n    //Register User KYC by registered Orgs\n    function registerKYC(\n        address _custaddress,\n        string memory _jsonHash,\n        string memory _photohash,\n        string memory _citizenship_front_hash,\n        string memory _citizenship_back_hash,\n        bool _kycStatus,\n        uint _d,\n        uint _n\n    ) public isOrgValid returns (bool) {\n        require(\n            customers[_custaddress].custAddress != _custaddress,\n            \"User already exists\"\n        );\n        writeKYC(\n            _custaddress,\n            _jsonHash,\n            _photohash,\n            _citizenship_front_hash,\n            _citizenship_back_hash,\n            _kycStatus,\n            _d,\n            _n\n        );\n        requestKYC(_custaddress);\n        emit customerAdded(_custaddress, _kycStatus);\n        return true;\n    }\n\n    //View User KYC by Authorized Orgs\n    function viewKYC(\n        address _custaddress\n    )\n        public\n        view\n        returns (\n            bool,\n            string memory,\n            string memory,\n            string memory,\n            string memory,\n            uint,\n            uint\n        )\n    {\n        require(\n            findOrg(_custaddress, msg.sender),\n            \"User hasnt given their consent\"\n        );\n        return (\n            customers[_custaddress].kycStatus,\n            customers[_custaddress].jsonHash,\n            customers[_custaddress].photoHash,\n            customers[_custaddress].citizenship_front_hash,\n            customers[_custaddress].citizenship_back_hash,\n            customers[_custaddress].d,\n            customers[_custaddress].n\n        );\n    }\n\n    function viewYourKYC() public view returns (Customer memory) {\n        require(validCust(), \"Customer not valid\");\n        return customers[msg.sender];\n    }\n\n    function viewOrgWithAccess() public view returns (address[] memory) {\n        require(\n            customers[msg.sender].custAddress == msg.sender,\n            \"You dont have authority\"\n        );\n        return customers[msg.sender].organization;\n    }\n\n    function viewRequestCust() public view returns (kycRequestList[] memory) {\n        require(validCust(), \"Customer not valid\");\n        kycRequestList[] memory ret = new kycRequestList[](\n            kycrequestsbycust[msg.sender].kycrequestlist.length\n        );\n        uint j = 0;\n        for (\n            uint i = 0;\n            i < kycrequestsbycust[msg.sender].kycrequestlist.length;\n            i++\n        ) {\n            ret[j] = kycrequestsbycust[msg.sender].kycrequestlist[i];\n            j++;\n        }\n        return (ret);\n    }\n\n    //Update User KYC by registered and authorized orgs\n    function updateKYC(\n        address _custaddress,\n        string memory _jsonHash,\n        string memory _photohash,\n        string memory _citizenship_front_hash,\n        string memory _citizenship_back_hash,\n        bool _kycStatus,\n        uint _d,\n        uint _n\n    ) public isOrgValid returns (bool) {\n        require(\n            customers[_custaddress].custAddress == _custaddress,\n            \"User doesn't exist\"\n        );\n        require(\n            findOrg(_custaddress, msg.sender),\n            \"You dont have access to this user\"\n        );\n        writeKYC(\n            _custaddress,\n            _jsonHash,\n            _photohash,\n            _citizenship_front_hash,\n            _citizenship_back_hash,\n            _kycStatus,\n            _d,\n            _n\n        );\n        emit customerUpdated(_custaddress, _kycStatus);\n        return true;\n    }\n\n    //Request User KYC by Orgs\n    function requestKYC(address _custaddress) public isOrgValid returns (bool) {\n        require(\n            customers[_custaddress].custAddress == _custaddress,\n            \"Customer doesnt exists\"\n        );\n        require(\n            findOrg(_custaddress, msg.sender) == false,\n            \"Already have access\"\n        );\n        require(findRequest(_custaddress) == false, \"Request Already Exists\");\n        kycrequestsbyorg[msg.sender].kycrequestlist.push(\n            kycRequestList(kycrequestsbyorg[msg.sender].req_count, _custaddress)\n        );\n        kycrequestsbycust[_custaddress].kycrequestlist.push(\n            kycRequestList(kycrequestsbyorg[msg.sender].req_count, msg.sender)\n        );\n        kycrequestsbyorg[msg.sender].req_count++;\n        emit requestAdded(\n            kycrequestsbyorg[msg.sender].req_count - 1,\n            msg.sender,\n            _custaddress,\n            false\n        );\n        return true;\n    }\n\n    function deleteRequest(\n        uint _reqcount,\n        address _custaddress,\n        address _ethAddress\n    ) internal {\n        uint index = findRequestIndex(_custaddress, _ethAddress);\n        kycrequestsbyorg[_ethAddress].kycrequestlist[\n            _reqcount\n        ] = kycrequestsbyorg[_ethAddress].kycrequestlist[\n            kycrequestsbyorg[_ethAddress].kycrequestlist.length - 1\n        ];\n        kycrequestsbyorg[_ethAddress].kycrequestlist.pop();\n        kycrequestsbycust[_custaddress].kycrequestlist[\n            index\n        ] = kycrequestsbycust[_custaddress].kycrequestlist[\n            kycrequestsbycust[_custaddress].kycrequestlist.length - 1\n        ];\n        kycrequestsbycust[_custaddress].kycrequestlist.pop();\n        if (\n            kycrequestsbyorg[msg.sender].kycrequestlist.length != _reqcount &&\n            kycrequestsbyorg[_ethAddress].req_count > 1\n        ) {\n            kycrequestsbyorg[_ethAddress]\n                .kycrequestlist[_reqcount]\n                .req_count = _reqcount;\n            address add = kycrequestsbyorg[_ethAddress]\n                .kycrequestlist[_reqcount]\n                .Address;\n            if (kycrequestsbycust[add].kycrequestlist.length > 0) {\n                index = findRequestIndex(add, _ethAddress);\n                kycrequestsbycust[add]\n                    .kycrequestlist[index]\n                    .req_count = _reqcount;\n            }\n        }\n        kycrequestsbyorg[_ethAddress].req_count--;\n        emit requestRemoved(_reqcount, _ethAddress);\n    }\n\n    //Delete User KYC request by organization\n    function deleteRequestOrg(uint _reqcount) public isOrgValid returns (bool) {\n        require(\n            kycrequestsbyorg[msg.sender].ethAddress == msg.sender,\n            \"You dont have authority to delete\"\n        );\n        require(\n            kycrequestsbyorg[msg.sender].kycrequestlist[_reqcount].req_count ==\n                _reqcount,\n            \"Request doesnt exist\"\n        );\n        address _custaddress = kycrequestsbyorg[msg.sender]\n            .kycrequestlist[_reqcount]\n            .Address;\n        deleteRequest(_reqcount, _custaddress, msg.sender);\n        return true;\n    }\n\n    //Delete User KYC Request after user provides access\n    function deleteRequestCust(uint _reqcount, address _ethAddress) public {\n        require(\n            organizations[_ethAddress].ethAddress == _ethAddress,\n            \"This particular organizations doesnt exist\"\n        );\n        require(\n            kycrequestsbyorg[_ethAddress].kycrequestlist[_reqcount].Address ==\n                msg.sender,\n            \"User not valid\"\n        );\n        require(\n            kycrequestsbyorg[_ethAddress].kycrequestlist[_reqcount].req_count ==\n                _reqcount,\n            \"Request doesnt exist\"\n        );\n        deleteRequest(_reqcount, msg.sender, _ethAddress);\n    }\n\n    //Return Array of all pending request of the orgs\n    function listRequest()\n        public\n        view\n        isOrgValid\n        returns (kycRequestList[] memory)\n    {\n        kycRequestList[] memory ret = new kycRequestList[](\n            kycrequestsbyorg[msg.sender].req_count\n        );\n        uint j = 0;\n        for (uint i = 0; i < kycrequestsbyorg[msg.sender].req_count; i++) {\n            ret[j] = kycrequestsbyorg[msg.sender].kycrequestlist[i];\n            j++;\n        }\n        return (ret);\n    }\n\n    //Give User KYC access to Org\n    function giveAccessKYC(\n        uint _reqcount,\n        address _ethAddress,\n        bool _isAllowed\n    ) public returns (bool) {\n        require(\n            customers[msg.sender].custAddress == msg.sender,\n            \"You dont have authority to give access\"\n        );\n        require(\n            kycrequestsbyorg[_ethAddress].kycrequestlist[_reqcount].Address ==\n                msg.sender,\n            \"User not valid\"\n        );\n        require(\n            kycrequestsbyorg[_ethAddress].kycrequestlist[_reqcount].req_count ==\n                _reqcount,\n            \"Requests not found\"\n        );\n        if (_isAllowed == true) {\n            if (findOrg(msg.sender, _ethAddress) == false) {\n                customers[msg.sender].organization.push(_ethAddress);\n            }\n            deleteRequestCust(_reqcount, _ethAddress);\n            emit accessGiven(_reqcount, msg.sender, _ethAddress, _isAllowed);\n        } else {\n            deleteRequestCust(_reqcount, _ethAddress);\n        }\n        return true;\n    }\n\n    function remove(address _custaddress, address _ethAddress) internal {\n        uint i = findOrgIndex(_custaddress, _ethAddress);\n        customers[_custaddress].organization[i] = customers[_custaddress]\n            .organization[customers[_custaddress].organization.length - 1];\n        customers[_custaddress].organization.pop();\n    }\n\n    //Revoke User KYC access of Orgs\n    function revokeAccessKYC(address _ethAddress) public returns (bool) {\n        require(\n            customers[msg.sender].custAddress == msg.sender,\n            \"You dont have authority to revoke access\"\n        );\n        require(\n            findOrg(msg.sender, _ethAddress),\n            \"You dont have access to this user\"\n        );\n        remove(msg.sender, _ethAddress);\n        emit accessRevoked(msg.sender, _ethAddress);\n        return true;\n    }\n\n    //Remove User KYC by Orgs\n    function removeKYC(address _custaddress) public isOrgValid returns (bool) {\n        require(\n            customers[_custaddress].custAddress == _custaddress,\n            \"User doesn't exist\"\n        );\n        require(\n            findOrg(_custaddress, msg.sender),\n            \"You dont have access to this user\"\n        );\n        remove(_custaddress, msg.sender);\n        emit kycRemoved(_custaddress, msg.sender);\n        return true;\n    }\n}\n",
  "sourcePath": "/home/itsmandar/Dev/Projects/E-KYC/contracts/Kyc.sol",
  "compiler": {
    "name": "solc",
    "version": "0.8.19+commit.7dd6d404.Emscripten.clang"
  },
  "schemaVersion": "3.4.13",
  "updatedAt": "2023-05-05T16:33:03.758Z",
  "networkType": "ethereum",
  "devdoc": {
    "kind": "dev",
    "methods": {},
    "version": 1
  },
  "userdoc": {
    "kind": "user",
    "methods": {},
    "version": 1
  }
}